S01700004763634170706C69636174696F6E312E737265635B
S11300000C942A000C943C000C943C000C943C008E
S11300100C943C000C943C000C943C000C943C006C
S11300200C943C000C943C000C943C000C943C005C
S11300300C943C000C943C000C943C000C943C004C
S11300400C943C000C943C000C943C000C943C003C
S11300500C943C0011241FBECFE5D8E0DEBFCDBF19
S113006020E0A0E6B0E001C01D92A037B207E1F79E
S11300700E943E000C94C5000C94000084B7806874
S113008084BF84B7806884BF8FEF8ABB17BA14BA61
S113009011BA81E090E007C0FC01E05AFF4F2FE065
S11300A0281B2083019680319105B4F3C0E0D0E091
S11300B046B350E0FA01EF70F0786F01559547951B
S11300C055954795559547955595479580B390E037
S11300D08F7090789C0183B3E82EF12CA82FA17027
S11300E0B0E0082F027010E015950795682F68702E
S11300F070E0759567957595679575956795F59411
S1130100E794F594E794F594E794F594E79482FFE3
S113011009C0E0B3E295EF70F0E0E05AFF4F808150
S11301208BBB2BC06130710569F406C0FC01E05A39
S1130130FF4F1082019602C080E090E0803191056B
S1130140ACF31BC0405A5F4FFA018081F0E18F9FEE
S1130150C0011124205A3F4FF90120812F70822BB6
S113016090788BBBCD2B49F4A130B10531F4012B30
S113017021F0F601E05AFF4FE08283EC99E0019709
S1110180F1F700C00000ED0193CFF894FFCF1B
S9030000FC
