S01700004763634170706C69636174696F6E312E737265635B
S11300000C942A000C943F000C943F000C943F0085
S11300100C943F000C943F000C943F000C943F0060
S11300200C943F000C943F000C943F000C943F0050
S11300300C943F000C943F000C943F000C943F0040
S11300400C943F000C943F000C943F000C943F0030
S11300500C943F0011241FBECFE5D8E0DEBFCDBF16
S113006012E0A0E6B0E0ECEDF0E002C005900D92E5
S1130070A036B107D9F70E9441000C946C000C948F
S113008000008FEF8ABB17BA84BB81BB84B780683A
S113009084BF84B7806884BF30E080E090E0E6B33A
S11300A0F0E0EE0FFF1FE05AFF4F20812BBB2181B0
S11300B025BB01968436910541F4311102C030E824
S11300C001C030E032BB80E090E0E3ECF9E031972E
S10F00D0F1F700C00000E3CFF894FFCF6C
S11300DC23303240343331D234E235F1231331033B
S11300EC31A4B090D091416434532016614630163B
S11300FC6146B0913171312525826136305652B347
S113010C61362056D09111C32091000000000000EC
S113011C00000000000000000000000000000000CF
S113012C00000000000000000000000000000000BF
S113013C00000000000000000000000000000000AF
S113014C000000000000000000000000000000009F
S113015C000000000000000000000000000000008F
S113016C000000000000000000000000000000007F
S113017C000000000000000000000000000000006F
S113018C000000000000000000000000000000005F
S113019C000000000000000000000000000000004F
S11301AC000000000000000000000000000000003F
S11301BC000000000000000000000000000000002F
S11301CC000000000000000000000000000000001F
S11301DC000000000000000000000000000000000F
S11301EC00000000000000000000000000000000FF
S11301FC00000000000000000000000000000000EF
S113020C00000000000000000000000000000000DE
S113021C00000000000000000000000000000000CE
S113022C00000000000000000000000000000000BE
S113023C00000000000000000000000000000000AE
S113024C000000000000000000000000000000009E
S113025C000000000000000000000000000000008E
S113026C000000000000000000000000000000007E
S113027C000000000000000000000000000000006E
S113028C000000000000000000000000000000005E
S113029C000000000000000000000000000000004E
S11302AC000000000000000000000000000000003E
S11302BC000000000000000000000000000000002E
S11302CC000000000000000000000000000000001E
S9030000FC
