:100000000C942A000C943C000C943C000C943C0092
:100010000C943C000C943C000C943C000C943C0070
:100020000C943C000C943C000C943C000C943C0060
:100030000C943C000C943C000C943C000C943C0050
:100040000C943C000C943C000C943C000C943C0040
:100050000C943C0011241FBECFE5D8E0DEBFCDBF1D
:1000600020E0A0E6B0E001C01D92A036B207E1F7A3
:100070000E943E000C9408010C94000084B7806834
:1000800084BF84B7806884BF8FEF8ABB17BA14BA65
:1000900011BA91E09BBB88BB8FE082BB85BBA0E01F
:1000A000B0E060B36F7070E0E0B3E295EF70F0E045
:1000B00026B32F7030E046B342954F7050E093B3B3
:1000C000092F027010E015950795C92FC470D0E074
:1000D000D595C795D595C79590FDAF016D30710544
:1000E00049F06330710531F06530710519F0613008
:1000F000710571F4240F351F2F703078332334F4D9
:1001000021503109206F3F6F2F5F3F4FD9015AC0F7
:100110006E30710549F06430710531F06C30710555
:1001200019F06A30710581F4241B350B205F3F4FB5
:100130002F703078332334F421503109206F3F6F12
:100140002F5F3F4FD9013EC06B30710519F062300F
:10015000710521F4DA01A223B32334C0CB01079740
:10016000029720F4DA01A22BB32B2CC06F3071055B
:1001700031F4242B352BD9018FE0A82723C066301A
:10018000710589F402C0220F331F4A95E2F72F70E0
:100190003078332334F421503109206F3F6F2F5FC3
:1001A0003F4FD9010FC06115710539F4D90102C063
:1001B000B595A7954A95E2F705C06930710511F428
:1001C000A0E0B0E0CD018F709927892B19F441E0B0
:1001D00050E002C040E050E09A012023312381E04A
:1001E00090E0452B11F080E090E08C239D23822B42
:1001F000932B82959295907F9827807F98278A2BC2
:100200008BBB83EC99E00197F1F700C0000049CF68
:04021000F894FFCF90
:00000001FF
