:100000000C942A000C943F000C943F000C943F0089
:100010000C943F000C943F000C943F000C943F0064
:100020000C943F000C943F000C943F000C943F0054
:100030000C943F000C943F000C943F000C943F0044
:100040000C943F000C943F000C943F000C943F0034
:100050000C943F0011241FBECFE5D8E0DEBFCDBF1A
:1000600012E0A0E6B0E0E0EEF0E002C005900D92F4
:10007000A036B107D9F70E9441000C946E000C9491
:1000800000008FEF8ABB17BA84BB81BB84B780683E
:1000900084BF84B7806884BF40E050E080E090E097
:1000A000E6B3F0E0EE0FFF1FE05AFF4F20812BBBBD
:1000B000218125BB01968436910549F480E890E0C2
:1000C0009C01241B350BA90122BB80E090E0E3ECEE
:1000D000F9E03197F1F700C00000E2CFF894FFCFCC
:1000E0002530343034D2509035E221C322A342125D
:1000F00013534313434441725623314352522162F6
:1001000031030000000000000000000000000000BB
:1001100000000000000000000000000000000000DF
:1001200000000000000000000000000000000000CF
:1001300000000000000000000000000000000000BF
:1001400000000000000000000000000000000000AF
:10015000000000000000000000000000000000009F
:10016000000000000000000000000000000000008F
:10017000000000000000000000000000000000007F
:10018000000000000000000000000000000000006F
:10019000000000000000000000000000000000005F
:1001A000000000000000000000000000000000004F
:1001B000000000000000000000000000000000003F
:1001C000000000000000000000000000000000002F
:1001D000000000000000000000000000000000001F
:1001E000000000000000000000000000000000000F
:1001F00000000000000000000000000000000000FF
:1002000000000000000000000000000000000000EE
:1002100000000000000000000000000000000000DE
:1002200000000000000000000000000000000000CE
:1002300000000000000000000000000000000000BE
:1002400000000000000000000000000000000000AE
:10025000000000000000000000000000000000009E
:10026000000000000000000000000000000000008E
:10027000000000000000000000000000000000007E
:10028000000000000000000000000000000000006E
:10029000000000000000000000000000000000005E
:1002A000000000000000000000000000000000004E
:1002B000000000000000000000000000000000003E
:1002C000000000000000000000000000000000002E
:1002D000000000000000000000000000000000001E
:00000001FF
